:060000000A128A1110280B
:10000800FE00030E83120313BE000408BF000A0893
:10001800C0000A128A113D280A128A111328831374
:10002800BC30FD000330FE005530FF00A0308400D6
:100038000A128A1188230A128A115430FD000330EB
:10004800FE007130FF00413084000A128A118823B3
:100058000A128A115430840064300A128A119723D4
:100068000A128A11FB01FC01FD0183010A128A119F
:10007800212A0C1F40284128BF281F0CBC003C0C1B
:100088000F39003A031D49284A28BE281E08BC001B
:10009800BD013C08FB003D08FC00FD0103307D026A
:1000A800031C572858285928B2287D08031D5D28A5
:1000B8005E2875287C08A5007B08A4007D08BC0084
:1000C800BD013C08A6003D08A7000A128A111421A8
:1000D8000A128A11831203132508DF002408DE00A0
:1000E800AD287D03031D79287A2891287C08A5006E
:1000F8007B08A4007D08BC00BD013C08A6003D08A3
:10010800A7000A128A1114210A128A1183120313F2
:100118002508DD002408DC00AD2802307D06031D1B
:1001280096289728AD287C08A5007B08A4007D08A0
:10013800BC00BD013C08A6003D08A7000A128A11B0
:1001480014210A128A11831203132508DB002408DC
:10015800DA000130BC003C08FD0752285B08C200E9
:100168005A08C1005D08C4005C08C3005F08C600E7
:100178005E08C5000C138C1EC228C328092931301B
:100188001A06031DC828C928DC280630F0000030EC
:10019800F10041300A128A1104230A128A1101302F
:1001A80083120313E4070318E50A0030E507092959
:1001B80032301A06031DE128E228F5281A089900AA
:1001C8000D309900FF30E4070318E50AFF30E50712
:1001D80032301A060319F128F228EC281A0886008A
:1001E80009291A0899000D3099000130E40703180D
:1001F800E50A0030E5070730F0000030F1004D3027
:100208000A128A1104230A128A118312031340085E
:100218008A003F0884003E0E8300FE0E7E0E090011
:100228006430F6000030F700831203132508F90044
:100238002408F8000A128A11B8210A128A117708CC
:1002480083120313BB007608BA000A30F6000030A8
:10025800F7003B08F1003A08F0009C30F200FF304C
:10026800F3000A128A1130230A128A118312031327
:1002780024087007F80025080318250A7107F900F3
:100288000A128A11B8210A128A11770883120313F5
:10029800B9007608B8003B08F1003A08F0009C3035
:1002A800F200FF30F3000A128A1130230A128A1171
:1002B800700883120313A8007108A9003908F10017
:1002C8003808F000F630F200FF30F3000A128A1105
:1002D80030230A128A117008831203132807AA0010
:1002E80071080318710A2907AB0024082A07AC0013
:1002F80025080318250A2B07AD003230840054085E
:1003080083138000840A55088000840A56088000F8
:10031800840A57088000840A58088000840A59080B
:1003280080002D08B3002C08B2003908B500380841
:10033800B4003B08B7003A08B6002608A80028070A
:10034800323E84000008AE00840A0008AF002E0880
:10035800303EB0002F080318013E003EB1003108BE
:10036800A5003008A400080083120313A101F71F99
:10037800BE29BF29C629F609F709F60A0319F70A9B
:10038800A101A10AF91FC929CA29D329F809F9091C
:10039800F80A0319F90A0130FA007A08A106A2013D
:1003A800A301760877040319DA29DB29122AA001A8
:1003B800A00AE92901300310F60DF70DFF3E031DD1
:1003C800DF290130FA007A08A007F71FEC29ED2988
:1003D800DE2901300310A20DA30DFF3E031DEE29F7
:1003E80077087902031DFA2976087802031CFD298B
:1003F800FE29052A7608F8027708031CF903F90292
:10040800221401300310F70CF60CFF3E031D062AD8
:100418000130A002031D112A122AED29210803190F
:10042800162A172A1C2AA209A309A20A0319A30A31
:100438002308F7002208F60008002030831203136F
:10044800E4000030E5000A128A117C220A128A119F
:10045800023083160313C2004530C100A930C00022
:10046800C00B342AC10B342AC20B342A831203135B
:1004780065086106031D422A640860060319452AB7
:10048800462A732A831603132F08C000C1014008A7
:1004980083120313E0008316031341088312031326
:1004A800E1000C3083160313BC000030BD00B030EF
:1004B8000A128A11CC220A128A11103083160313E9
:1004C800BC000030BD00A0300A128A11CC220A12EA
:1004D8008A11831203136508E1006408E0009F187D
:1004E800762A772A2C2A9F142C2A0A128A11102875
:1004F800013083160317880089010130831603131E
:100508008500831203138501831603138601831262
:1005180003138601831603130F088F3940388F00A1
:100528000F14181218158316031787151930831618
:10053800031399009A018312031398178316031360
:10054800181398168312031318161F083F394038DA
:100558009F00831603131F129F16C33083120313C1
:100568009F05831603139F13831203131F1402306E
:1005780083160313BC00BC0BBF2A000083120313AD
:100588000C13831603130C178B170B178C16080004
:1005980083160313BF00EB2A831203136208831622
:1005A80003133F07BE003E0884008313000883122C
:1005B800031399000130E2070318E30A0030E30748
:1005C800A53083160313BE00BE0BE82AEB2A83125C
:1005D80003136308803A83160313BE003D08803A6C
:1005E8003E02031DFB2A3C08831203136202031C0C
:1005F800FE2AFF2AD02A83120313E201E30108002E
:10060800F3001B2B8312031362087307F2007208AE
:1006180084008313000899000130E2070318E30AF5
:100628000030E307A630F200F20B182B000083120B
:1006380003136308803AF2007108803A7202031DBE
:10064800272B70086202031C2A2B2B2B062B8312E4
:100658000313E201E3010800F401F501701C352BD6
:10066800362B3C2B7208F4070318F50A7308F507B4
:1006780001300310F20DF30DFF3E031D3D2B013039
:100688000310F10CF00CFF3E031D442B700871049D
:10069800031D4F2B502B322B7508F1007408F00006
:1006A800080032342E3445346E347634693461347B
:1006B80072342034413453344334493449340D348A
:1006C80020340D3431342E344C346534653472346E
:1006D800203470346F3474340D340D3400342034C5
:1006E80000342034003420340034203400340D34F5
:1006F80000340D346534723472346F3472340D340E
:100708007E088A007F0882000A128A1184230A124E
:100718008A118000840A04087D0603190034FF0A40
:100728000319FE0A882B64008001840A0406031951
:0607380000340406982BBA
:08400000FF3FFF3FFF3FFF3FC0
:04400E00D420FF3F7C
:00000001FF
